{
  "contractName": "AcademicCredential",
  "abi": [
    {
      "inputs": [
        {
          "internalType": "uint256",
          "name": "_id",
          "type": "uint256"
        },
        {
          "internalType": "uint256",
          "name": "_employee_id",
          "type": "uint256"
        },
        {
          "internalType": "string",
          "name": "_credential_type",
          "type": "string"
        },
        {
          "internalType": "string",
          "name": "_field_of_study",
          "type": "string"
        },
        {
          "internalType": "string",
          "name": "_institution_name",
          "type": "string"
        }
      ],
      "stateMutability": "nonpayable",
      "type": "constructor"
    },
    {
      "inputs": [],
      "name": "credential_type",
      "outputs": [
        {
          "internalType": "string",
          "name": "",
          "type": "string"
        }
      ],
      "stateMutability": "view",
      "type": "function",
      "constant": true
    },
    {
      "inputs": [],
      "name": "employee_id",
      "outputs": [
        {
          "internalType": "uint256",
          "name": "",
          "type": "uint256"
        }
      ],
      "stateMutability": "view",
      "type": "function",
      "constant": true
    },
    {
      "inputs": [],
      "name": "field_of_study",
      "outputs": [
        {
          "internalType": "string",
          "name": "",
          "type": "string"
        }
      ],
      "stateMutability": "view",
      "type": "function",
      "constant": true
    },
    {
      "inputs": [],
      "name": "id",
      "outputs": [
        {
          "internalType": "uint256",
          "name": "",
          "type": "uint256"
        }
      ],
      "stateMutability": "view",
      "type": "function",
      "constant": true
    },
    {
      "inputs": [],
      "name": "institution_name",
      "outputs": [
        {
          "internalType": "string",
          "name": "",
          "type": "string"
        }
      ],
      "stateMutability": "view",
      "type": "function",
      "constant": true
    },
    {
      "inputs": [
        {
          "internalType": "string",
          "name": "_credential_type",
          "type": "string"
        },
        {
          "internalType": "string",
          "name": "_field_of_study",
          "type": "string"
        },
        {
          "internalType": "string",
          "name": "_institution_name",
          "type": "string"
        }
      ],
      "name": "updateAcademicCredential",
      "outputs": [],
      "stateMutability": "nonpayable",
      "type": "function"
    }
  ],
  "bytecode": "0x60806040523480156200001157600080fd5b5060405162000baf38038062000baf833981810160405281019062000037919062000323565b846000819055508360018190555082600290805190602001906200005d9291906200009b565b508160039080519060200190620000769291906200009b565b5080600490805190602001906200008f9291906200009b565b5050505050506200046d565b828054620000a99062000437565b90600052602060002090601f016020900481019282620000cd576000855562000119565b82601f10620000e857805160ff191683800117855562000119565b8280016001018555821562000119579182015b8281111562000118578251825591602001919060010190620000fb565b5b5090506200012891906200012c565b5090565b5b80821115620001475760008160009055506001016200012d565b5090565b6000604051905090565b600080fd5b600080fd5b6000819050919050565b62000174816200015f565b81146200018057600080fd5b50565b600081519050620001948162000169565b92915050565b600080fd5b600080fd5b6000601f19601f8301169050919050565b7f4e487b7100000000000000000000000000000000000000000000000000000000600052604160045260246000fd5b620001ef82620001a4565b810181811067ffffffffffffffff82111715620002115762000210620001b5565b5b80604052505050565b6000620002266200014b565b9050620002348282620001e4565b919050565b600067ffffffffffffffff821115620002575762000256620001b5565b5b6200026282620001a4565b9050602081019050919050565b60005b838110156200028f57808201518184015260208101905062000272565b838111156200029f576000848401525b50505050565b6000620002bc620002b68462000239565b6200021a565b905082815260208101848484011115620002db57620002da6200019f565b5b620002e88482856200026f565b509392505050565b600082601f8301126200030857620003076200019a565b5b81516200031a848260208601620002a5565b91505092915050565b600080600080600060a0868803121562000342576200034162000155565b5b6000620003528882890162000183565b9550506020620003658882890162000183565b945050604086015167ffffffffffffffff8111156200038957620003886200015a565b5b6200039788828901620002f0565b935050606086015167ffffffffffffffff811115620003bb57620003ba6200015a565b5b620003c988828901620002f0565b925050608086015167ffffffffffffffff811115620003ed57620003ec6200015a565b5b620003fb88828901620002f0565b9150509295509295909350565b7f4e487b7100000000000000000000000000000000000000000000000000000000600052602260045260246000fd5b600060028204905060018216806200045057607f821691505b6020821081141562000467576200046662000408565b5b50919050565b610732806200047d6000396000f3fe608060405234801561001057600080fd5b50600436106100625760003560e01c8063387dbcab14610067578063519d041a146100855780635d977310146100a15780636689c1ab146100bf578063af640d0f146100dd578063e4e6b885146100fb575b600080fd5b61006f610119565b60405161007c91906103d5565b60405180910390f35b61009f600480360381019061009a919061054a565b61011f565b005b6100a9610169565b6040516100b69190610679565b60405180910390f35b6100c76101f7565b6040516100d49190610679565b60405180910390f35b6100e5610285565b6040516100f291906103d5565b60405180910390f35b61010361028b565b6040516101109190610679565b60405180910390f35b60015481565b8260029080519060200190610135929190610319565b50816003908051906020019061014c929190610319565b508060049080519060200190610163929190610319565b50505050565b60048054610176906106ca565b80601f01602080910402602001604051908101604052809291908181526020018280546101a2906106ca565b80156101ef5780601f106101c4576101008083540402835291602001916101ef565b820191906000526020600020905b8154815290600101906020018083116101d257829003601f168201915b505050505081565b60038054610204906106ca565b80601f0160208091040260200160405190810160405280929190818152602001828054610230906106ca565b801561027d5780601f106102525761010080835404028352916020019161027d565b820191906000526020600020905b81548152906001019060200180831161026057829003601f168201915b505050505081565b60005481565b60028054610298906106ca565b80601f01602080910402602001604051908101604052809291908181526020018280546102c4906106ca565b80156103115780601f106102e657610100808354040283529160200191610311565b820191906000526020600020905b8154815290600101906020018083116102f457829003601f168201915b505050505081565b828054610325906106ca565b90600052602060002090601f016020900481019282610347576000855561038e565b82601f1061036057805160ff191683800117855561038e565b8280016001018555821561038e579182015b8281111561038d578251825591602001919060010190610372565b5b50905061039b919061039f565b5090565b5b808211156103b85760008160009055506001016103a0565b5090565b6000819050919050565b6103cf816103bc565b82525050565b60006020820190506103ea60008301846103c6565b92915050565b6000604051905090565b600080fd5b600080fd5b600080fd5b600080fd5b6000601f19601f8301169050919050565b7f4e487b7100000000000000000000000000000000000000000000000000000000600052604160045260246000fd5b6104578261040e565b810181811067ffffffffffffffff821117156104765761047561041f565b5b80604052505050565b60006104896103f0565b9050610495828261044e565b919050565b600067ffffffffffffffff8211156104b5576104b461041f565b5b6104be8261040e565b9050602081019050919050565b82818337600083830152505050565b60006104ed6104e88461049a565b61047f565b90508281526020810184848401111561050957610508610409565b5b6105148482856104cb565b509392505050565b600082601f83011261053157610530610404565b5b81356105418482602086016104da565b91505092915050565b600080600060608486031215610563576105626103fa565b5b600084013567ffffffffffffffff811115610581576105806103ff565b5b61058d8682870161051c565b935050602084013567ffffffffffffffff8111156105ae576105ad6103ff565b5b6105ba8682870161051c565b925050604084013567ffffffffffffffff8111156105db576105da6103ff565b5b6105e78682870161051c565b9150509250925092565b600081519050919050565b600082825260208201905092915050565b60005b8381101561062b578082015181840152602081019050610610565b8381111561063a576000848401525b50505050565b600061064b826105f1565b61065581856105fc565b935061066581856020860161060d565b61066e8161040e565b840191505092915050565b600060208201905081810360008301526106938184610640565b905092915050565b7f4e487b7100000000000000000000000000000000000000000000000000000000600052602260045260246000fd5b600060028204905060018216806106e257607f821691505b602082108114156106f6576106f561069b565b5b5091905056fea26469706673582212205449d59f7125a82422de2a2ca8995df24516af2f133b99d2884cf2c5cf63607164736f6c63430008090033",
  "immutableReferences": {},
  "source": "// SPDX-License-Identifier: MIT \r\npragma solidity ^0.8.0;\r\n\r\ncontract AcademicCredential{\r\n    uint public id;\r\n    uint public employee_id;\r\n    string public credential_type;\r\n    string public field_of_study;\r\n    string public institution_name;\r\n\r\n    constructor(uint _id, uint _employee_id, string memory _credential_type, string memory _field_of_study, string memory _institution_name){\r\n        id = _id;\r\n        employee_id = _employee_id;\r\n        credential_type = _credential_type;\r\n        field_of_study = _field_of_study;\r\n        institution_name = _institution_name;\r\n    }\r\n\r\n    function updateAcademicCredential(string memory _credential_type, string memory _field_of_study, string memory _institution_name) public{\r\n        credential_type = _credential_type;\r\n        field_of_study = _field_of_study;\r\n        institution_name = _institution_name;\r\n    }\r\n}",
  "sourcePath": "D:\\Blockchain\\contracts\\AcademicCredential.sol",
  "compiler": {
    "name": "solc",
    "version": "0.8.9+commit.e5eed63a.Emscripten.clang"
  },
  "schemaVersion": "3.4.16",
  "updatedAt": "2024-05-17T12:05:24.373Z",
  "networkType": "ethereum",
  "devdoc": {
    "kind": "dev",
    "methods": {},
    "version": 1
  },
  "userdoc": {
    "kind": "user",
    "methods": {},
    "version": 1
  }
}