{
  "contractName": "Controller",
  "abi": [
    {
      "inputs": [
        {
          "internalType": "contract Repository",
          "name": "_repository",
          "type": "address"
        }
      ],
      "stateMutability": "nonpayable",
      "type": "constructor"
    },
    {
      "anonymous": false,
      "inputs": [
        {
          "indexed": false,
          "internalType": "uint256",
          "name": "employee_id",
          "type": "uint256"
        },
        {
          "indexed": false,
          "internalType": "uint256",
          "name": "academic_credential_id",
          "type": "uint256"
        }
      ],
      "name": "AcademicCredentialCreated",
      "type": "event"
    },
    {
      "inputs": [],
      "name": "repository",
      "outputs": [
        {
          "internalType": "contract Repository",
          "name": "",
          "type": "address"
        }
      ],
      "stateMutability": "view",
      "type": "function",
      "constant": true
    },
    {
      "inputs": [
        {
          "internalType": "string",
          "name": "name",
          "type": "string"
        },
        {
          "internalType": "string",
          "name": "birth_date",
          "type": "string"
        }
      ],
      "name": "addEmployee",
      "outputs": [],
      "stateMutability": "nonpayable",
      "type": "function"
    },
    {
      "inputs": [
        {
          "internalType": "uint256",
          "name": "employee_id",
          "type": "uint256"
        },
        {
          "internalType": "string",
          "name": "new_name",
          "type": "string"
        },
        {
          "internalType": "string",
          "name": "new_birth_date",
          "type": "string"
        }
      ],
      "name": "updateEmployee",
      "outputs": [],
      "stateMutability": "nonpayable",
      "type": "function"
    },
    {
      "inputs": [
        {
          "internalType": "uint256",
          "name": "employee_id",
          "type": "uint256"
        },
        {
          "internalType": "string",
          "name": "credential_type",
          "type": "string"
        },
        {
          "internalType": "string",
          "name": "field_of_study",
          "type": "string"
        },
        {
          "internalType": "string",
          "name": "institution_name",
          "type": "string"
        }
      ],
      "name": "addAcademicCredential",
      "outputs": [],
      "stateMutability": "nonpayable",
      "type": "function"
    },
    {
      "inputs": [
        {
          "internalType": "uint256",
          "name": "employee_id",
          "type": "uint256"
        },
        {
          "internalType": "uint256",
          "name": "academic_credential_id",
          "type": "uint256"
        },
        {
          "internalType": "string",
          "name": "new_credential_type",
          "type": "string"
        },
        {
          "internalType": "string",
          "name": "new_field_of_study",
          "type": "string"
        },
        {
          "internalType": "string",
          "name": "new_institution_name",
          "type": "string"
        }
      ],
      "name": "updateAcademicCredential",
      "outputs": [],
      "stateMutability": "nonpayable",
      "type": "function"
    }
  ],
  "bytecode": "0x60806040523480156200001157600080fd5b5060405162001175380380620011758339818101604052810190620000379190620000fc565b806000806101000a81548173ffffffffffffffffffffffffffffffffffffffff021916908373ffffffffffffffffffffffffffffffffffffffff160217905550506200012e565b600080fd5b600073ffffffffffffffffffffffffffffffffffffffff82169050919050565b6000620000b08262000083565b9050919050565b6000620000c482620000a3565b9050919050565b620000d681620000b7565b8114620000e257600080fd5b50565b600081519050620000f681620000cb565b92915050565b6000602082840312156200011557620001146200007e565b5b60006200012584828501620000e5565b91505092915050565b611037806200013e6000396000f3fe608060405234801561001057600080fd5b50600436106100575760003560e01c80633e9231cd1461005c578063611816d81461007857806370f1cca71461009457806372e038a4146100b0578063e9176c60146100cc575b600080fd5b6100766004803603810190610071919061086d565b6100ea565b005b610092600480360381019061008d919061091b565b610207565b005b6100ae60048036038101906100a991906109a6565b610327565b005b6100ca60048036038101906100c59190610a61565b610583565b005b6100d46106ef565b6040516100e19190610baf565b60405180910390f35b81600081511161012f576040517f08c379a000000000000000000000000000000000000000000000000000000000815260040161012690610c27565b60405180910390fd5b816000815111610174576040517f08c379a000000000000000000000000000000000000000000000000000000000815260040161016b90610c27565b60405180910390fd5b60008054906101000a900473ffffffffffffffffffffffffffffffffffffffff1673ffffffffffffffffffffffffffffffffffffffff16633e9231cd85856040518363ffffffff1660e01b81526004016101cf929190610cbe565b600060405180830381600087803b1580156101e957600080fd5b505af11580156101fd573d6000803e3d6000fd5b5050505050505050565b81600081511161024c576040517f08c379a000000000000000000000000000000000000000000000000000000000815260040161024390610c27565b60405180910390fd5b816000815111610291576040517f08c379a000000000000000000000000000000000000000000000000000000000815260040161028890610c27565b60405180910390fd5b60008054906101000a900473ffffffffffffffffffffffffffffffffffffffff1673ffffffffffffffffffffffffffffffffffffffff1663611816d88686866040518463ffffffff1660e01b81526004016102ee93929190610d04565b600060405180830381600087803b15801561030857600080fd5b505af115801561031c573d6000803e3d6000fd5b505050505050505050565b82600081511161036c576040517f08c379a000000000000000000000000000000000000000000000000000000000815260040161036390610c27565b60405180910390fd5b8260008151116103b1576040517f08c379a00000000000000000000000000000000000000000000000000000000081526004016103a890610c27565b60405180910390fd5b8260008151116103f6576040517f08c379a00000000000000000000000000000000000000000000000000000000081526004016103ed90610c27565b60405180910390fd5b60008054906101000a900473ffffffffffffffffffffffffffffffffffffffff1673ffffffffffffffffffffffffffffffffffffffff166370f1cca7888888886040518563ffffffff1660e01b81526004016104559493929190610d49565b600060405180830381600087803b15801561046f57600080fd5b505af1158015610483573d6000803e3d6000fd5b505050507f5bea6cce509537db39b422c67a8cad8e1e5acbd095f314bf3ba7283e9a81801487600160008054906101000a900473ffffffffffffffffffffffffffffffffffffffff1673ffffffffffffffffffffffffffffffffffffffff16639cdb6fb38b6040518263ffffffff1660e01b81526004016105049190610da3565b60006040518083038186803b15801561051c57600080fd5b505afa158015610530573d6000803e3d6000fd5b505050506040513d6000823e3d601f19601f820116820180604052508101906105599190610ec4565b516105649190610f3c565b604051610572929190610f70565b60405180910390a150505050505050565b8260008151116105c8576040517f08c379a00000000000000000000000000000000000000000000000000000000081526004016105bf90610c27565b60405180910390fd5b82600081511161060d576040517f08c379a000000000000000000000000000000000000000000000000000000000815260040161060490610c27565b60405180910390fd5b826000815111610652576040517f08c379a000000000000000000000000000000000000000000000000000000000815260040161064990610c27565b60405180910390fd5b60008054906101000a900473ffffffffffffffffffffffffffffffffffffffff1673ffffffffffffffffffffffffffffffffffffffff166372e038a489898989896040518663ffffffff1660e01b81526004016106b3959493929190610f99565b600060405180830381600087803b1580156106cd57600080fd5b505af11580156106e1573d6000803e3d6000fd5b505050505050505050505050565b60008054906101000a900473ffffffffffffffffffffffffffffffffffffffff1681565b6000604051905090565b600080fd5b600080fd5b600080fd5b600080fd5b6000601f19601f8301169050919050565b7f4e487b7100000000000000000000000000000000000000000000000000000000600052604160045260246000fd5b61077a82610731565b810181811067ffffffffffffffff8211171561079957610798610742565b5b80604052505050565b60006107ac610713565b90506107b88282610771565b919050565b600067ffffffffffffffff8211156107d8576107d7610742565b5b6107e182610731565b9050602081019050919050565b82818337600083830152505050565b600061081061080b846107bd565b6107a2565b90508281526020810184848401111561082c5761082b61072c565b5b6108378482856107ee565b509392505050565b600082601f83011261085457610853610727565b5b81356108648482602086016107fd565b91505092915050565b600080604083850312156108845761088361071d565b5b600083013567ffffffffffffffff8111156108a2576108a1610722565b5b6108ae8582860161083f565b925050602083013567ffffffffffffffff8111156108cf576108ce610722565b5b6108db8582860161083f565b9150509250929050565b6000819050919050565b6108f8816108e5565b811461090357600080fd5b50565b600081359050610915816108ef565b92915050565b6000806000606084860312156109345761093361071d565b5b600061094286828701610906565b935050602084013567ffffffffffffffff81111561096357610962610722565b5b61096f8682870161083f565b925050604084013567ffffffffffffffff8111156109905761098f610722565b5b61099c8682870161083f565b9150509250925092565b600080600080608085870312156109c0576109bf61071d565b5b60006109ce87828801610906565b945050602085013567ffffffffffffffff8111156109ef576109ee610722565b5b6109fb8782880161083f565b935050604085013567ffffffffffffffff811115610a1c57610a1b610722565b5b610a288782880161083f565b925050606085013567ffffffffffffffff811115610a4957610a48610722565b5b610a558782880161083f565b91505092959194509250565b600080600080600060a08688031215610a7d57610a7c61071d565b5b6000610a8b88828901610906565b9550506020610a9c88828901610906565b945050604086013567ffffffffffffffff811115610abd57610abc610722565b5b610ac98882890161083f565b935050606086013567ffffffffffffffff811115610aea57610ae9610722565b5b610af68882890161083f565b925050608086013567ffffffffffffffff811115610b1757610b16610722565b5b610b238882890161083f565b9150509295509295909350565b600073ffffffffffffffffffffffffffffffffffffffff82169050919050565b6000819050919050565b6000610b75610b70610b6b84610b30565b610b50565b610b30565b9050919050565b6000610b8782610b5a565b9050919050565b6000610b9982610b7c565b9050919050565b610ba981610b8e565b82525050565b6000602082019050610bc46000830184610ba0565b92915050565b600082825260208201905092915050565b7f537472696e67206d757374206e6f7420626520656d7074790000000000000000600082015250565b6000610c11601883610bca565b9150610c1c82610bdb565b602082019050919050565b60006020820190508181036000830152610c4081610c04565b9050919050565b600081519050919050565b60005b83811015610c70578082015181840152602081019050610c55565b83811115610c7f576000848401525b50505050565b6000610c9082610c47565b610c9a8185610bca565b9350610caa818560208601610c52565b610cb381610731565b840191505092915050565b60006040820190508181036000830152610cd88185610c85565b90508181036020830152610cec8184610c85565b90509392505050565b610cfe816108e5565b82525050565b6000606082019050610d196000830186610cf5565b8181036020830152610d2b8185610c85565b90508181036040830152610d3f8184610c85565b9050949350505050565b6000608082019050610d5e6000830187610cf5565b8181036020830152610d708186610c85565b90508181036040830152610d848185610c85565b90508181036060830152610d988184610c85565b905095945050505050565b6000602082019050610db86000830184610cf5565b92915050565b600067ffffffffffffffff821115610dd957610dd8610742565b5b602082029050602081019050919050565b600080fd5b6000610dfa82610b30565b9050919050565b610e0a81610def565b8114610e1557600080fd5b50565b600081519050610e2781610e01565b92915050565b6000610e40610e3b84610dbe565b6107a2565b90508083825260208201905060208402830185811115610e6357610e62610dea565b5b835b81811015610e8c5780610e788882610e18565b845260208401935050602081019050610e65565b5050509392505050565b600082601f830112610eab57610eaa610727565b5b8151610ebb848260208601610e2d565b91505092915050565b600060208284031215610eda57610ed961071d565b5b600082015167ffffffffffffffff811115610ef857610ef7610722565b5b610f0484828501610e96565b91505092915050565b7f4e487b7100000000000000000000000000000000000000000000000000000000600052601160045260246000fd5b6000610f47826108e5565b9150610f52836108e5565b925082821015610f6557610f64610f0d565b5b828203905092915050565b6000604082019050610f856000830185610cf5565b610f926020830184610cf5565b9392505050565b600060a082019050610fae6000830188610cf5565b610fbb6020830187610cf5565b8181036040830152610fcd8186610c85565b90508181036060830152610fe18185610c85565b90508181036080830152610ff58184610c85565b9050969550505050505056fea2646970667358221220f8bd59c2dff1966aaeb055b337ad05a7a6a76402b915aca90cf2ee0e1315414864736f6c63430008090033",
  "immutableReferences": {},
  "source": "// SPDX-License-Identifier: MIT\r\npragma solidity ^0.8.0;\r\n\r\nimport \"./Repository.sol\";\r\n\r\ncontract Controller {\r\n    Repository public repository;\r\n    event AcademicCredentialCreated(uint employee_id, uint academic_credential_id);\r\n\r\n    constructor (Repository _repository){\r\n        repository = _repository;\r\n    }\r\n\r\n    modifier notEmptyString(string memory str) {\r\n        require(bytes(str).length > 0, \"String must not be empty\");\r\n        _;\r\n    }\r\n\r\n    function addEmployee(string memory name, string memory birth_date) public notEmptyString(name) notEmptyString(birth_date) {\r\n        repository.addEmployee(name, birth_date);\r\n    }\r\n\r\n    function updateEmployee(uint employee_id, string memory new_name, string memory new_birth_date) public notEmptyString(new_name) notEmptyString(new_birth_date){\r\n        repository.updateEmployee(employee_id, new_name, new_birth_date);\r\n    }\r\n\r\n    function addAcademicCredential(uint employee_id, string memory credential_type, string memory field_of_study, string memory institution_name) public notEmptyString(credential_type) notEmptyString(field_of_study) notEmptyString(institution_name){\r\n        repository.addAcademicCredential(employee_id, credential_type, field_of_study, institution_name);\r\n        emit AcademicCredentialCreated(employee_id, repository.getAllAcademicRecordsOfEmployee(employee_id).length - 1);\r\n    }\r\n\r\n    function updateAcademicCredential(uint employee_id, uint academic_credential_id, string memory new_credential_type, string memory new_field_of_study, string memory new_institution_name) public notEmptyString(new_credential_type) notEmptyString(new_field_of_study) notEmptyString(new_institution_name){\r\n        repository.updateAcademicCredential(employee_id, academic_credential_id, new_credential_type, new_field_of_study, new_institution_name);\r\n    }\r\n}\r\n",
  "sourcePath": "D:\\Blockchain\\contracts\\Controller.sol",
  "compiler": {
    "name": "solc",
    "version": "0.8.9+commit.e5eed63a.Emscripten.clang"
  },
  "schemaVersion": "3.4.16",
  "updatedAt": "2024-05-17T12:05:25.363Z",
  "networkType": "ethereum",
  "devdoc": {
    "kind": "dev",
    "methods": {},
    "version": 1
  },
  "userdoc": {
    "kind": "user",
    "methods": {},
    "version": 1
  }
}