{
  "contractName": "Employee",
  "abi": [
    {
      "inputs": [
        {
          "internalType": "uint256",
          "name": "_id",
          "type": "uint256"
        },
        {
          "internalType": "string",
          "name": "_name",
          "type": "string"
        },
        {
          "internalType": "string",
          "name": "_birth_date",
          "type": "string"
        }
      ],
      "stateMutability": "nonpayable",
      "type": "constructor"
    },
    {
      "inputs": [
        {
          "internalType": "uint256",
          "name": "",
          "type": "uint256"
        }
      ],
      "name": "academic_credentials",
      "outputs": [
        {
          "internalType": "address",
          "name": "",
          "type": "address"
        }
      ],
      "stateMutability": "view",
      "type": "function",
      "constant": true
    },
    {
      "inputs": [],
      "name": "birth_date",
      "outputs": [
        {
          "internalType": "string",
          "name": "",
          "type": "string"
        }
      ],
      "stateMutability": "view",
      "type": "function",
      "constant": true
    },
    {
      "inputs": [],
      "name": "id",
      "outputs": [
        {
          "internalType": "uint256",
          "name": "",
          "type": "uint256"
        }
      ],
      "stateMutability": "view",
      "type": "function",
      "constant": true
    },
    {
      "inputs": [],
      "name": "name",
      "outputs": [
        {
          "internalType": "string",
          "name": "",
          "type": "string"
        }
      ],
      "stateMutability": "view",
      "type": "function",
      "constant": true
    },
    {
      "inputs": [
        {
          "internalType": "address",
          "name": "academic_credential_addresss",
          "type": "address"
        }
      ],
      "name": "addAcademicCredential",
      "outputs": [],
      "stateMutability": "nonpayable",
      "type": "function"
    },
    {
      "inputs": [],
      "name": "getAcademicCredentials",
      "outputs": [
        {
          "internalType": "address[]",
          "name": "",
          "type": "address[]"
        }
      ],
      "stateMutability": "view",
      "type": "function",
      "constant": true
    },
    {
      "inputs": [
        {
          "internalType": "string",
          "name": "_name",
          "type": "string"
        },
        {
          "internalType": "string",
          "name": "_birth_date",
          "type": "string"
        }
      ],
      "name": "updateDetails",
      "outputs": [],
      "stateMutability": "nonpayable",
      "type": "function"
    },
    {
      "inputs": [],
      "name": "getAcademicCredentialsCount",
      "outputs": [
        {
          "internalType": "uint256",
          "name": "",
          "type": "uint256"
        }
      ],
      "stateMutability": "view",
      "type": "function",
      "constant": true
    }
  ],
  "bytecode": "0x60806040523480156200001157600080fd5b5060405162000e0738038062000e07833981810160405281019062000037919062000301565b8260008190555081600190805190602001906200005692919062000079565b5080600290805190602001906200006f92919062000079565b5050505062000400565b8280546200008790620003ca565b90600052602060002090601f016020900481019282620000ab5760008555620000f7565b82601f10620000c657805160ff1916838001178555620000f7565b82800160010185558215620000f7579182015b82811115620000f6578251825591602001919060010190620000d9565b5b5090506200010691906200010a565b5090565b5b80821115620001255760008160009055506001016200010b565b5090565b6000604051905090565b600080fd5b600080fd5b6000819050919050565b62000152816200013d565b81146200015e57600080fd5b50565b600081519050620001728162000147565b92915050565b600080fd5b600080fd5b6000601f19601f8301169050919050565b7f4e487b7100000000000000000000000000000000000000000000000000000000600052604160045260246000fd5b620001cd8262000182565b810181811067ffffffffffffffff82111715620001ef57620001ee62000193565b5b80604052505050565b60006200020462000129565b9050620002128282620001c2565b919050565b600067ffffffffffffffff82111562000235576200023462000193565b5b620002408262000182565b9050602081019050919050565b60005b838110156200026d57808201518184015260208101905062000250565b838111156200027d576000848401525b50505050565b60006200029a620002948462000217565b620001f8565b905082815260208101848484011115620002b957620002b86200017d565b5b620002c68482856200024d565b509392505050565b600082601f830112620002e657620002e562000178565b5b8151620002f884826020860162000283565b91505092915050565b6000806000606084860312156200031d576200031c62000133565b5b60006200032d8682870162000161565b935050602084015167ffffffffffffffff81111562000351576200035062000138565b5b6200035f86828701620002ce565b925050604084015167ffffffffffffffff81111562000383576200038262000138565b5b6200039186828701620002ce565b9150509250925092565b7f4e487b7100000000000000000000000000000000000000000000000000000000600052602260045260246000fd5b60006002820490506001821680620003e357607f821691505b60208210811415620003fa57620003f96200039b565b5b50919050565b6109f780620004106000396000f3fe608060405234801561001057600080fd5b50600436106100885760003560e01c8063a898fd301161005b578063a898fd3014610117578063ac1bc7e814610133578063af640d0f1461014f578063c5b12cce1461016d57610088565b806306fdde031461008d578063280a2fea146100ab578063580d9e95146100c957806359f0c94a146100f9575b600080fd5b61009561018b565b6040516100a2919061055b565b60405180910390f35b6100b3610219565b6040516100c0919061055b565b60405180910390f35b6100e360048036038101906100de91906105c7565b6102a7565b6040516100f09190610635565b60405180910390f35b6101016102e6565b60405161010e919061065f565b60405180910390f35b610131600480360381019061012c91906106a6565b6102f3565b005b61014d60048036038101906101489190610808565b610359565b005b61015761038b565b604051610164919061065f565b60405180910390f35b610175610391565b604051610182919061093e565b60405180910390f35b600180546101989061098f565b80601f01602080910402602001604051908101604052809291908181526020018280546101c49061098f565b80156102115780601f106101e657610100808354040283529160200191610211565b820191906000526020600020905b8154815290600101906020018083116101f457829003601f168201915b505050505081565b600280546102269061098f565b80601f01602080910402602001604051908101604052809291908181526020018280546102529061098f565b801561029f5780601f106102745761010080835404028352916020019161029f565b820191906000526020600020905b81548152906001019060200180831161028257829003601f168201915b505050505081565b600381815481106102b757600080fd5b906000526020600020016000915054906101000a900473ffffffffffffffffffffffffffffffffffffffff1681565b6000600380549050905090565b6003819080600181540180825580915050600190039060005260206000200160009091909190916101000a81548173ffffffffffffffffffffffffffffffffffffffff021916908373ffffffffffffffffffffffffffffffffffffffff16021790555050565b816001908051906020019061036f92919061041f565b50806002908051906020019061038692919061041f565b505050565b60005481565b6060600380548060200260200160405190810160405280929190818152602001828054801561041557602002820191906000526020600020905b8160009054906101000a900473ffffffffffffffffffffffffffffffffffffffff1673ffffffffffffffffffffffffffffffffffffffff16815260200190600101908083116103cb575b5050505050905090565b82805461042b9061098f565b90600052602060002090601f01602090048101928261044d5760008555610494565b82601f1061046657805160ff1916838001178555610494565b82800160010185558215610494579182015b82811115610493578251825591602001919060010190610478565b5b5090506104a191906104a5565b5090565b5b808211156104be5760008160009055506001016104a6565b5090565b600081519050919050565b600082825260208201905092915050565b60005b838110156104fc5780820151818401526020810190506104e1565b8381111561050b576000848401525b50505050565b6000601f19601f8301169050919050565b600061052d826104c2565b61053781856104cd565b93506105478185602086016104de565b61055081610511565b840191505092915050565b600060208201905081810360008301526105758184610522565b905092915050565b6000604051905090565b600080fd5b600080fd5b6000819050919050565b6105a481610591565b81146105af57600080fd5b50565b6000813590506105c18161059b565b92915050565b6000602082840312156105dd576105dc610587565b5b60006105eb848285016105b2565b91505092915050565b600073ffffffffffffffffffffffffffffffffffffffff82169050919050565b600061061f826105f4565b9050919050565b61062f81610614565b82525050565b600060208201905061064a6000830184610626565b92915050565b61065981610591565b82525050565b60006020820190506106746000830184610650565b92915050565b61068381610614565b811461068e57600080fd5b50565b6000813590506106a08161067a565b92915050565b6000602082840312156106bc576106bb610587565b5b60006106ca84828501610691565b91505092915050565b600080fd5b600080fd5b7f4e487b7100000000000000000000000000000000000000000000000000000000600052604160045260246000fd5b61071582610511565b810181811067ffffffffffffffff82111715610734576107336106dd565b5b80604052505050565b600061074761057d565b9050610753828261070c565b919050565b600067ffffffffffffffff821115610773576107726106dd565b5b61077c82610511565b9050602081019050919050565b82818337600083830152505050565b60006107ab6107a684610758565b61073d565b9050828152602081018484840111156107c7576107c66106d8565b5b6107d2848285610789565b509392505050565b600082601f8301126107ef576107ee6106d3565b5b81356107ff848260208601610798565b91505092915050565b6000806040838503121561081f5761081e610587565b5b600083013567ffffffffffffffff81111561083d5761083c61058c565b5b610849858286016107da565b925050602083013567ffffffffffffffff81111561086a5761086961058c565b5b610876858286016107da565b9150509250929050565b600081519050919050565b600082825260208201905092915050565b6000819050602082019050919050565b6108b581610614565b82525050565b60006108c783836108ac565b60208301905092915050565b6000602082019050919050565b60006108eb82610880565b6108f5818561088b565b93506109008361089c565b8060005b8381101561093157815161091888826108bb565b9750610923836108d3565b925050600181019050610904565b5085935050505092915050565b6000602082019050818103600083015261095881846108e0565b905092915050565b7f4e487b7100000000000000000000000000000000000000000000000000000000600052602260045260246000fd5b600060028204905060018216806109a757607f821691505b602082108114156109bb576109ba610960565b5b5091905056fea2646970667358221220a312c736ec855b87b84ffeab289fff7637b14eb5bfef9b8c089aab4d55422ed364736f6c63430008090033",
  "immutableReferences": {},
  "source": "// SPDX-License-Identifier: MIT \r\npragma solidity ^0.8.0;\r\n\r\ncontract Employee{\r\n    uint public id;\r\n    string public name;\r\n    string public birth_date;\r\n    address[] public academic_credentials;\r\n\r\n    constructor(uint _id, string memory _name, string memory _birth_date){\r\n        id = _id;\r\n        name = _name;\r\n        birth_date = _birth_date;\r\n    }\r\n\r\n    function addAcademicCredential(address academic_credential_addresss) public{\r\n        academic_credentials.push(academic_credential_addresss);\r\n    }\r\n\r\n    function getAcademicCredentials() public view returns (address[] memory) {\r\n        return academic_credentials;\r\n    }\r\n\r\n    function updateDetails(string memory _name, string memory _birth_date) public{\r\n        name = _name;\r\n        birth_date = _birth_date;\r\n    }\r\n\r\n    function getAcademicCredentialsCount() public view returns (uint) {\r\n        return academic_credentials.length;\r\n    }\r\n}",
  "sourcePath": "D:\\Blockchain\\contracts\\Employee.sol",
  "compiler": {
    "name": "solc",
    "version": "0.8.9+commit.e5eed63a.Emscripten.clang"
  },
  "schemaVersion": "3.4.16",
  "updatedAt": "2024-05-17T12:05:24.363Z",
  "networkType": "ethereum",
  "devdoc": {
    "kind": "dev",
    "methods": {},
    "version": 1
  },
  "userdoc": {
    "kind": "user",
    "methods": {},
    "version": 1
  }
}