{
  "contractName": "Repository",
  "abi": [
    {
      "anonymous": false,
      "inputs": [
        {
          "indexed": false,
          "internalType": "uint256",
          "name": "academic_credential_id",
          "type": "uint256"
        },
        {
          "indexed": false,
          "internalType": "address",
          "name": "academic_credential_address",
          "type": "address"
        }
      ],
      "name": "AcademicCredentialAdded",
      "type": "event"
    },
    {
      "anonymous": false,
      "inputs": [
        {
          "indexed": false,
          "internalType": "uint256",
          "name": "employee_id",
          "type": "uint256"
        },
        {
          "indexed": false,
          "internalType": "uint256",
          "name": "academic_credential_id",
          "type": "uint256"
        },
        {
          "indexed": false,
          "internalType": "string",
          "name": "new_credential_type",
          "type": "string"
        },
        {
          "indexed": false,
          "internalType": "string",
          "name": "new_field_of_study",
          "type": "string"
        },
        {
          "indexed": false,
          "internalType": "string",
          "name": "new_institution_name",
          "type": "string"
        }
      ],
      "name": "AcademicCredentialUpdated",
      "type": "event"
    },
    {
      "anonymous": false,
      "inputs": [
        {
          "indexed": false,
          "internalType": "uint256",
          "name": "employee_id",
          "type": "uint256"
        },
        {
          "indexed": false,
          "internalType": "address",
          "name": "employee_address",
          "type": "address"
        }
      ],
      "name": "EmployeeAdded",
      "type": "event"
    },
    {
      "anonymous": false,
      "inputs": [
        {
          "indexed": false,
          "internalType": "uint256",
          "name": "employee_id",
          "type": "uint256"
        },
        {
          "indexed": false,
          "internalType": "string",
          "name": "new_name",
          "type": "string"
        },
        {
          "indexed": false,
          "internalType": "string",
          "name": "new_birth_date",
          "type": "string"
        }
      ],
      "name": "EmployeeUpdated",
      "type": "event"
    },
    {
      "inputs": [
        {
          "internalType": "uint256",
          "name": "",
          "type": "uint256"
        }
      ],
      "name": "employees",
      "outputs": [
        {
          "internalType": "address",
          "name": "",
          "type": "address"
        }
      ],
      "stateMutability": "view",
      "type": "function",
      "constant": true
    },
    {
      "inputs": [
        {
          "internalType": "string",
          "name": "name",
          "type": "string"
        },
        {
          "internalType": "string",
          "name": "birth_date",
          "type": "string"
        }
      ],
      "name": "addEmployee",
      "outputs": [],
      "stateMutability": "nonpayable",
      "type": "function"
    },
    {
      "inputs": [
        {
          "internalType": "uint256",
          "name": "employee_id",
          "type": "uint256"
        },
        {
          "internalType": "string",
          "name": "new_name",
          "type": "string"
        },
        {
          "internalType": "string",
          "name": "new_birth_date",
          "type": "string"
        }
      ],
      "name": "updateEmployee",
      "outputs": [],
      "stateMutability": "nonpayable",
      "type": "function"
    },
    {
      "inputs": [
        {
          "internalType": "uint256",
          "name": "employee_id",
          "type": "uint256"
        },
        {
          "internalType": "string",
          "name": "credential_type",
          "type": "string"
        },
        {
          "internalType": "string",
          "name": "field_of_study",
          "type": "string"
        },
        {
          "internalType": "string",
          "name": "institution_name",
          "type": "string"
        }
      ],
      "name": "addAcademicCredential",
      "outputs": [],
      "stateMutability": "nonpayable",
      "type": "function"
    },
    {
      "inputs": [
        {
          "internalType": "uint256",
          "name": "employee_id",
          "type": "uint256"
        },
        {
          "internalType": "uint256",
          "name": "academic_credential_id",
          "type": "uint256"
        },
        {
          "internalType": "string",
          "name": "new_credential_type",
          "type": "string"
        },
        {
          "internalType": "string",
          "name": "new_field_of_study",
          "type": "string"
        },
        {
          "internalType": "string",
          "name": "new_institution_name",
          "type": "string"
        }
      ],
      "name": "updateAcademicCredential",
      "outputs": [],
      "stateMutability": "nonpayable",
      "type": "function"
    },
    {
      "inputs": [
        {
          "internalType": "uint256",
          "name": "employee_id",
          "type": "uint256"
        }
      ],
      "name": "getEmployee",
      "outputs": [
        {
          "internalType": "address",
          "name": "",
          "type": "address"
        }
      ],
      "stateMutability": "view",
      "type": "function",
      "constant": true
    },
    {
      "inputs": [
        {
          "internalType": "uint256",
          "name": "employee_id",
          "type": "uint256"
        }
      ],
      "name": "getAllAcademicRecordsOfEmployee",
      "outputs": [
        {
          "internalType": "address[]",
          "name": "",
          "type": "address[]"
        }
      ],
      "stateMutability": "view",
      "type": "function",
      "constant": true
    },
    {
      "inputs": [
        {
          "internalType": "uint256",
          "name": "employee_id",
          "type": "uint256"
        },
        {
          "internalType": "uint256",
          "name": "academic_credential_id",
          "type": "uint256"
        }
      ],
      "name": "getCertainAcademicCredentialOfEmployee",
      "outputs": [
        {
          "internalType": "address",
          "name": "",
          "type": "address"
        }
      ],
      "stateMutability": "view",
      "type": "function",
      "constant": true
    }
  ],
  "bytecode": "0x6080604052600060015534801561001557600080fd5b5061335b806100256000396000f3fe60806040523480156200001157600080fd5b5060043610620000945760003560e01c806372e038a4116200006357806372e038a4146200012f5780639cdb6fb3146200014f578063aa7a57161462000185578063bca9a5c514620001bb5762000094565b80633e9231cd14620000995780634739326b14620000b9578063611816d814620000ef57806370f1cca7146200010f575b600080fd5b620000b76004803603810190620000b1919062000e24565b620001f1565b005b620000d76004803603810190620000d1919062000ee4565b620002e3565b604051620000e6919062000f5b565b60405180910390f35b6200010d600480360381019062000107919062000f78565b62000316565b005b6200012d600480360381019062000127919062001012565b62000442565b005b6200014d6004803603810190620001479190620010e1565b6200063e565b005b6200016d600480360381019062000167919062000ee4565b620008f3565b6040516200017c919062001294565b60405180910390f35b620001a360048036038101906200019d9190620012b8565b62000a02565b604051620001b2919062000f5b565b60405180910390f35b620001d96004803603810190620001d3919062000ee4565b62000c0f565b604051620001e8919062000f5b565b60405180910390f35b60006001548383604051620002069062000c92565b6200021493929190620013a3565b604051809103906000f08015801562000231573d6000803e3d6000fd5b50905080600080600154815260200190815260200160002060006101000a81548173ffffffffffffffffffffffffffffffffffffffff021916908373ffffffffffffffffffffffffffffffffffffffff1602179055507f40ff9d12272bfe4858e50671fc7f95e46d1040416ae78d20b8d6a3890c4f240e60015482604051620002bc929190620013ee565b60405180910390a160016000815480929190620002d9906200144a565b9190505550505050565b60006020528060005260406000206000915054906101000a900473ffffffffffffffffffffffffffffffffffffffff1681565b60015483106200035d576040517f08c379a00000000000000000000000000000000000000000000000000000000081526004016200035490620014e8565b60405180910390fd5b60008084815260200190815260200160002060009054906101000a900473ffffffffffffffffffffffffffffffffffffffff1673ffffffffffffffffffffffffffffffffffffffff1663ac1bc7e883836040518363ffffffff1660e01b8152600401620003cc9291906200150a565b600060405180830381600087803b158015620003e757600080fd5b505af1158015620003fc573d6000803e3d6000fd5b505050507fc562a6f1e7fb12cc7199c8ed4dd0ccd49022030ddd3d87448e18d300fcbe19be8383836040516200043593929190620013a3565b60405180910390a1505050565b600154841062000489576040517f08c379a00000000000000000000000000000000000000000000000000000000081526004016200048090620014e8565b60405180910390fd5b600080600086815260200190815260200160002060009054906101000a900473ffffffffffffffffffffffffffffffffffffffff16905060008173ffffffffffffffffffffffffffffffffffffffff166359f0c94a6040518163ffffffff1660e01b815260040160206040518083038186803b1580156200050957600080fd5b505afa1580156200051e573d6000803e3d6000fd5b505050506040513d601f19601f820116820180604052508101906200054491906200155c565b9050600081878787876040516200055b9062000ca0565b6200056b9594939291906200158e565b604051809103906000f08015801562000588573d6000803e3d6000fd5b5090508273ffffffffffffffffffffffffffffffffffffffff1663a898fd30826040518263ffffffff1660e01b8152600401620005c6919062000f5b565b600060405180830381600087803b158015620005e157600080fd5b505af1158015620005f6573d6000803e3d6000fd5b505050507fc8d4f49b3e62560a8a5ef90e1c2d2185114099f88f53a61d07772ff23051fe3f82826040516200062d929190620013ee565b60405180910390a150505050505050565b600154851062000685576040517f08c379a00000000000000000000000000000000000000000000000000000000081526004016200067c90620014e8565b60405180910390fd5b600080600087815260200190815260200160002060009054906101000a900473ffffffffffffffffffffffffffffffffffffffff16905060008173ffffffffffffffffffffffffffffffffffffffff166359f0c94a6040518163ffffffff1660e01b815260040160206040518083038186803b1580156200070557600080fd5b505afa1580156200071a573d6000803e3d6000fd5b505050506040513d601f19601f820116820180604052508101906200074091906200155c565b905080861062000787576040517f08c379a00000000000000000000000000000000000000000000000000000000081526004016200077e906200169c565b60405180910390fd5b60008273ffffffffffffffffffffffffffffffffffffffff1663c5b12cce6040518163ffffffff1660e01b815260040160006040518083038186803b158015620007d057600080fd5b505afa158015620007e5573d6000803e3d6000fd5b505050506040513d6000823e3d601f19601f82011682018060405250810190620008109190620017ca565b905060008188815181106200082a57620008296200181b565b5b602002602001015190508073ffffffffffffffffffffffffffffffffffffffff1663519d041a8888886040518463ffffffff1660e01b815260040162000873939291906200184a565b600060405180830381600087803b1580156200088e57600080fd5b505af1158015620008a3573d6000803e3d6000fd5b505050507fdc4a4e858bf634d291b5d20014fd4389163d69d5147c319c1ecf869ab629b4cf8989898989604051620008e09594939291906200158e565b60405180910390a1505050505050505050565b606060015482106200093c576040517f08c379a00000000000000000000000000000000000000000000000000000000081526004016200093390620014e8565b60405180910390fd5b600080600084815260200190815260200160002060009054906101000a900473ffffffffffffffffffffffffffffffffffffffff1690508073ffffffffffffffffffffffffffffffffffffffff1663c5b12cce6040518163ffffffff1660e01b815260040160006040518083038186803b158015620009ba57600080fd5b505afa158015620009cf573d6000803e3d6000fd5b505050506040513d6000823e3d601f19601f82011682018060405250810190620009fa9190620017ca565b915050919050565b6000600154831062000a4b576040517f08c379a000000000000000000000000000000000000000000000000000000000815260040162000a4290620014e8565b60405180910390fd5b600080600085815260200190815260200160002060009054906101000a900473ffffffffffffffffffffffffffffffffffffffff16905060008173ffffffffffffffffffffffffffffffffffffffff166359f0c94a6040518163ffffffff1660e01b815260040160206040518083038186803b15801562000acb57600080fd5b505afa15801562000ae0573d6000803e3d6000fd5b505050506040513d601f19601f8201168201806040525081019062000b0691906200155c565b905080841062000b4d576040517f08c379a000000000000000000000000000000000000000000000000000000000815260040162000b449062001912565b60405180910390fd5b60008273ffffffffffffffffffffffffffffffffffffffff1663c5b12cce6040518163ffffffff1660e01b815260040160006040518083038186803b15801562000b9657600080fd5b505afa15801562000bab573d6000803e3d6000fd5b505050506040513d6000823e3d601f19601f8201168201806040525081019062000bd69190620017ca565b90508060018662000be8919062001934565b8151811062000bfc5762000bfb6200181b565b5b6020026020010151935050505092915050565b6000600154821062000c58576040517f08c379a000000000000000000000000000000000000000000000000000000000815260040162000c4f90620014e8565b60405180910390fd5b60008083815260200190815260200160002060009054906101000a900473ffffffffffffffffffffffffffffffffffffffff169050919050565b610e07806200197083390190565b610baf806200277783390190565b6000604051905090565b600080fd5b600080fd5b600080fd5b600080fd5b6000601f19601f8301169050919050565b7f4e487b7100000000000000000000000000000000000000000000000000000000600052604160045260246000fd5b62000d178262000ccc565b810181811067ffffffffffffffff8211171562000d395762000d3862000cdd565b5b80604052505050565b600062000d4e62000cae565b905062000d5c828262000d0c565b919050565b600067ffffffffffffffff82111562000d7f5762000d7e62000cdd565b5b62000d8a8262000ccc565b9050602081019050919050565b82818337600083830152505050565b600062000dbd62000db78462000d61565b62000d42565b90508281526020810184848401111562000ddc5762000ddb62000cc7565b5b62000de984828562000d97565b509392505050565b600082601f83011262000e095762000e0862000cc2565b5b813562000e1b84826020860162000da6565b91505092915050565b6000806040838503121562000e3e5762000e3d62000cb8565b5b600083013567ffffffffffffffff81111562000e5f5762000e5e62000cbd565b5b62000e6d8582860162000df1565b925050602083013567ffffffffffffffff81111562000e915762000e9062000cbd565b5b62000e9f8582860162000df1565b9150509250929050565b6000819050919050565b62000ebe8162000ea9565b811462000eca57600080fd5b50565b60008135905062000ede8162000eb3565b92915050565b60006020828403121562000efd5762000efc62000cb8565b5b600062000f0d8482850162000ecd565b91505092915050565b600073ffffffffffffffffffffffffffffffffffffffff82169050919050565b600062000f438262000f16565b9050919050565b62000f558162000f36565b82525050565b600060208201905062000f72600083018462000f4a565b92915050565b60008060006060848603121562000f945762000f9362000cb8565b5b600062000fa48682870162000ecd565b935050602084013567ffffffffffffffff81111562000fc85762000fc762000cbd565b5b62000fd68682870162000df1565b925050604084013567ffffffffffffffff81111562000ffa5762000ff962000cbd565b5b620010088682870162000df1565b9150509250925092565b600080600080608085870312156200102f576200102e62000cb8565b5b60006200103f8782880162000ecd565b945050602085013567ffffffffffffffff81111562001063576200106262000cbd565b5b620010718782880162000df1565b935050604085013567ffffffffffffffff81111562001095576200109462000cbd565b5b620010a38782880162000df1565b925050606085013567ffffffffffffffff811115620010c757620010c662000cbd565b5b620010d58782880162000df1565b91505092959194509250565b600080600080600060a086880312156200110057620010ff62000cb8565b5b6000620011108882890162000ecd565b9550506020620011238882890162000ecd565b945050604086013567ffffffffffffffff81111562001147576200114662000cbd565b5b620011558882890162000df1565b935050606086013567ffffffffffffffff81111562001179576200117862000cbd565b5b620011878882890162000df1565b925050608086013567ffffffffffffffff811115620011ab57620011aa62000cbd565b5b620011b98882890162000df1565b9150509295509295909350565b600081519050919050565b600082825260208201905092915050565b6000819050602082019050919050565b620011fd8162000f36565b82525050565b6000620012118383620011f2565b60208301905092915050565b6000602082019050919050565b60006200123782620011c6565b620012438185620011d1565b93506200125083620011e2565b8060005b83811015620012875781516200126b888262001203565b975062001278836200121d565b92505060018101905062001254565b5085935050505092915050565b60006020820190508181036000830152620012b081846200122a565b905092915050565b60008060408385031215620012d257620012d162000cb8565b5b6000620012e28582860162000ecd565b9250506020620012f58582860162000ecd565b9150509250929050565b6200130a8162000ea9565b82525050565b600081519050919050565b600082825260208201905092915050565b60005b838110156200134c5780820151818401526020810190506200132f565b838111156200135c576000848401525b50505050565b60006200136f8262001310565b6200137b81856200131b565b93506200138d8185602086016200132c565b620013988162000ccc565b840191505092915050565b6000606082019050620013ba6000830186620012ff565b8181036020830152620013ce818562001362565b90508181036040830152620013e4818462001362565b9050949350505050565b6000604082019050620014056000830185620012ff565b62001414602083018462000f4a565b9392505050565b7f4e487b7100000000000000000000000000000000000000000000000000000000600052601160045260246000fd5b6000620014578262000ea9565b91507fffffffffffffffffffffffffffffffffffffffffffffffffffffffffffffffff8214156200148d576200148c6200141b565b5b600182019050919050565b7f456d706c6f79656520646f6573206e6f74206578697374210000000000000000600082015250565b6000620014d06018836200131b565b9150620014dd8262001498565b602082019050919050565b600060208201905081810360008301526200150381620014c1565b9050919050565b6000604082019050818103600083015262001526818562001362565b905081810360208301526200153c818462001362565b90509392505050565b600081519050620015568162000eb3565b92915050565b60006020828403121562001575576200157462000cb8565b5b6000620015858482850162001545565b91505092915050565b600060a082019050620015a56000830188620012ff565b620015b46020830187620012ff565b8181036040830152620015c8818662001362565b90508181036060830152620015de818562001362565b90508181036080830152620015f4818462001362565b90509695505050505050565b7f41636164656d69632063726564656e7469616c2077697468207468652067697660008201527f656e20696420646f6573206e6f7420657869737420666f72207468617420706160208201527f7469656e74210000000000000000000000000000000000000000000000000000604082015250565b6000620016846046836200131b565b9150620016918262001600565b606082019050919050565b60006020820190508181036000830152620016b78162001675565b9050919050565b600067ffffffffffffffff821115620016dc57620016db62000cdd565b5b602082029050602081019050919050565b600080fd5b620016fd8162000f36565b81146200170957600080fd5b50565b6000815190506200171d81620016f2565b92915050565b60006200173a6200173484620016be565b62000d42565b9050808382526020820190506020840283018581111562001760576200175f620016ed565b5b835b818110156200178d57806200177888826200170c565b84526020840193505060208101905062001762565b5050509392505050565b600082601f830112620017af57620017ae62000cc2565b5b8151620017c184826020860162001723565b91505092915050565b600060208284031215620017e357620017e262000cb8565b5b600082015167ffffffffffffffff81111562001804576200180362000cbd565b5b620018128482850162001797565b91505092915050565b7f4e487b7100000000000000000000000000000000000000000000000000000000600052603260045260246000fd5b6000606082019050818103600083015262001866818662001362565b905081810360208301526200187c818562001362565b9050818103604083015262001892818462001362565b9050949350505050565b7f41636164656d69632063726564656e7469616c2077697468207468652067697660008201527f656e20696420646f6573206e6f74206578697374210000000000000000000000602082015250565b6000620018fa6035836200131b565b915062001907826200189c565b604082019050919050565b600060208201905081810360008301526200192d81620018eb565b9050919050565b6000620019418262000ea9565b91506200194e8362000ea9565b9250828210156200196457620019636200141b565b5b82820390509291505056fe60806040523480156200001157600080fd5b5060405162000e0738038062000e07833981810160405281019062000037919062000301565b8260008190555081600190805190602001906200005692919062000079565b5080600290805190602001906200006f92919062000079565b5050505062000400565b8280546200008790620003ca565b90600052602060002090601f016020900481019282620000ab5760008555620000f7565b82601f10620000c657805160ff1916838001178555620000f7565b82800160010185558215620000f7579182015b82811115620000f6578251825591602001919060010190620000d9565b5b5090506200010691906200010a565b5090565b5b80821115620001255760008160009055506001016200010b565b5090565b6000604051905090565b600080fd5b600080fd5b6000819050919050565b62000152816200013d565b81146200015e57600080fd5b50565b600081519050620001728162000147565b92915050565b600080fd5b600080fd5b6000601f19601f8301169050919050565b7f4e487b7100000000000000000000000000000000000000000000000000000000600052604160045260246000fd5b620001cd8262000182565b810181811067ffffffffffffffff82111715620001ef57620001ee62000193565b5b80604052505050565b60006200020462000129565b9050620002128282620001c2565b919050565b600067ffffffffffffffff82111562000235576200023462000193565b5b620002408262000182565b9050602081019050919050565b60005b838110156200026d57808201518184015260208101905062000250565b838111156200027d576000848401525b50505050565b60006200029a620002948462000217565b620001f8565b905082815260208101848484011115620002b957620002b86200017d565b5b620002c68482856200024d565b509392505050565b600082601f830112620002e657620002e562000178565b5b8151620002f884826020860162000283565b91505092915050565b6000806000606084860312156200031d576200031c62000133565b5b60006200032d8682870162000161565b935050602084015167ffffffffffffffff81111562000351576200035062000138565b5b6200035f86828701620002ce565b925050604084015167ffffffffffffffff81111562000383576200038262000138565b5b6200039186828701620002ce565b9150509250925092565b7f4e487b7100000000000000000000000000000000000000000000000000000000600052602260045260246000fd5b60006002820490506001821680620003e357607f821691505b60208210811415620003fa57620003f96200039b565b5b50919050565b6109f780620004106000396000f3fe608060405234801561001057600080fd5b50600436106100885760003560e01c8063a898fd301161005b578063a898fd3014610117578063ac1bc7e814610133578063af640d0f1461014f578063c5b12cce1461016d57610088565b806306fdde031461008d578063280a2fea146100ab578063580d9e95146100c957806359f0c94a146100f9575b600080fd5b61009561018b565b6040516100a2919061055b565b60405180910390f35b6100b3610219565b6040516100c0919061055b565b60405180910390f35b6100e360048036038101906100de91906105c7565b6102a7565b6040516100f09190610635565b60405180910390f35b6101016102e6565b60405161010e919061065f565b60405180910390f35b610131600480360381019061012c91906106a6565b6102f3565b005b61014d60048036038101906101489190610808565b610359565b005b61015761038b565b604051610164919061065f565b60405180910390f35b610175610391565b604051610182919061093e565b60405180910390f35b600180546101989061098f565b80601f01602080910402602001604051908101604052809291908181526020018280546101c49061098f565b80156102115780601f106101e657610100808354040283529160200191610211565b820191906000526020600020905b8154815290600101906020018083116101f457829003601f168201915b505050505081565b600280546102269061098f565b80601f01602080910402602001604051908101604052809291908181526020018280546102529061098f565b801561029f5780601f106102745761010080835404028352916020019161029f565b820191906000526020600020905b81548152906001019060200180831161028257829003601f168201915b505050505081565b600381815481106102b757600080fd5b906000526020600020016000915054906101000a900473ffffffffffffffffffffffffffffffffffffffff1681565b6000600380549050905090565b6003819080600181540180825580915050600190039060005260206000200160009091909190916101000a81548173ffffffffffffffffffffffffffffffffffffffff021916908373ffffffffffffffffffffffffffffffffffffffff16021790555050565b816001908051906020019061036f92919061041f565b50806002908051906020019061038692919061041f565b505050565b60005481565b6060600380548060200260200160405190810160405280929190818152602001828054801561041557602002820191906000526020600020905b8160009054906101000a900473ffffffffffffffffffffffffffffffffffffffff1673ffffffffffffffffffffffffffffffffffffffff16815260200190600101908083116103cb575b5050505050905090565b82805461042b9061098f565b90600052602060002090601f01602090048101928261044d5760008555610494565b82601f1061046657805160ff1916838001178555610494565b82800160010185558215610494579182015b82811115610493578251825591602001919060010190610478565b5b5090506104a191906104a5565b5090565b5b808211156104be5760008160009055506001016104a6565b5090565b600081519050919050565b600082825260208201905092915050565b60005b838110156104fc5780820151818401526020810190506104e1565b8381111561050b576000848401525b50505050565b6000601f19601f8301169050919050565b600061052d826104c2565b61053781856104cd565b93506105478185602086016104de565b61055081610511565b840191505092915050565b600060208201905081810360008301526105758184610522565b905092915050565b6000604051905090565b600080fd5b600080fd5b6000819050919050565b6105a481610591565b81146105af57600080fd5b50565b6000813590506105c18161059b565b92915050565b6000602082840312156105dd576105dc610587565b5b60006105eb848285016105b2565b91505092915050565b600073ffffffffffffffffffffffffffffffffffffffff82169050919050565b600061061f826105f4565b9050919050565b61062f81610614565b82525050565b600060208201905061064a6000830184610626565b92915050565b61065981610591565b82525050565b60006020820190506106746000830184610650565b92915050565b61068381610614565b811461068e57600080fd5b50565b6000813590506106a08161067a565b92915050565b6000602082840312156106bc576106bb610587565b5b60006106ca84828501610691565b91505092915050565b600080fd5b600080fd5b7f4e487b7100000000000000000000000000000000000000000000000000000000600052604160045260246000fd5b61071582610511565b810181811067ffffffffffffffff82111715610734576107336106dd565b5b80604052505050565b600061074761057d565b9050610753828261070c565b919050565b600067ffffffffffffffff821115610773576107726106dd565b5b61077c82610511565b9050602081019050919050565b82818337600083830152505050565b60006107ab6107a684610758565b61073d565b9050828152602081018484840111156107c7576107c66106d8565b5b6107d2848285610789565b509392505050565b600082601f8301126107ef576107ee6106d3565b5b81356107ff848260208601610798565b91505092915050565b6000806040838503121561081f5761081e610587565b5b600083013567ffffffffffffffff81111561083d5761083c61058c565b5b610849858286016107da565b925050602083013567ffffffffffffffff81111561086a5761086961058c565b5b610876858286016107da565b9150509250929050565b600081519050919050565b600082825260208201905092915050565b6000819050602082019050919050565b6108b581610614565b82525050565b60006108c783836108ac565b60208301905092915050565b6000602082019050919050565b60006108eb82610880565b6108f5818561088b565b93506109008361089c565b8060005b8381101561093157815161091888826108bb565b9750610923836108d3565b925050600181019050610904565b5085935050505092915050565b6000602082019050818103600083015261095881846108e0565b905092915050565b7f4e487b7100000000000000000000000000000000000000000000000000000000600052602260045260246000fd5b600060028204905060018216806109a757607f821691505b602082108114156109bb576109ba610960565b5b5091905056fea2646970667358221220a312c736ec855b87b84ffeab289fff7637b14eb5bfef9b8c089aab4d55422ed364736f6c6343000809003360806040523480156200001157600080fd5b5060405162000baf38038062000baf833981810160405281019062000037919062000323565b846000819055508360018190555082600290805190602001906200005d9291906200009b565b508160039080519060200190620000769291906200009b565b5080600490805190602001906200008f9291906200009b565b5050505050506200046d565b828054620000a99062000437565b90600052602060002090601f016020900481019282620000cd576000855562000119565b82601f10620000e857805160ff191683800117855562000119565b8280016001018555821562000119579182015b8281111562000118578251825591602001919060010190620000fb565b5b5090506200012891906200012c565b5090565b5b80821115620001475760008160009055506001016200012d565b5090565b6000604051905090565b600080fd5b600080fd5b6000819050919050565b62000174816200015f565b81146200018057600080fd5b50565b600081519050620001948162000169565b92915050565b600080fd5b600080fd5b6000601f19601f8301169050919050565b7f4e487b7100000000000000000000000000000000000000000000000000000000600052604160045260246000fd5b620001ef82620001a4565b810181811067ffffffffffffffff82111715620002115762000210620001b5565b5b80604052505050565b6000620002266200014b565b9050620002348282620001e4565b919050565b600067ffffffffffffffff821115620002575762000256620001b5565b5b6200026282620001a4565b9050602081019050919050565b60005b838110156200028f57808201518184015260208101905062000272565b838111156200029f576000848401525b50505050565b6000620002bc620002b68462000239565b6200021a565b905082815260208101848484011115620002db57620002da6200019f565b5b620002e88482856200026f565b509392505050565b600082601f8301126200030857620003076200019a565b5b81516200031a848260208601620002a5565b91505092915050565b600080600080600060a0868803121562000342576200034162000155565b5b6000620003528882890162000183565b9550506020620003658882890162000183565b945050604086015167ffffffffffffffff8111156200038957620003886200015a565b5b6200039788828901620002f0565b935050606086015167ffffffffffffffff811115620003bb57620003ba6200015a565b5b620003c988828901620002f0565b925050608086015167ffffffffffffffff811115620003ed57620003ec6200015a565b5b620003fb88828901620002f0565b9150509295509295909350565b7f4e487b7100000000000000000000000000000000000000000000000000000000600052602260045260246000fd5b600060028204905060018216806200045057607f821691505b6020821081141562000467576200046662000408565b5b50919050565b610732806200047d6000396000f3fe608060405234801561001057600080fd5b50600436106100625760003560e01c8063387dbcab14610067578063519d041a146100855780635d977310146100a15780636689c1ab146100bf578063af640d0f146100dd578063e4e6b885146100fb575b600080fd5b61006f610119565b60405161007c91906103d5565b60405180910390f35b61009f600480360381019061009a919061054a565b61011f565b005b6100a9610169565b6040516100b69190610679565b60405180910390f35b6100c76101f7565b6040516100d49190610679565b60405180910390f35b6100e5610285565b6040516100f291906103d5565b60405180910390f35b61010361028b565b6040516101109190610679565b60405180910390f35b60015481565b8260029080519060200190610135929190610319565b50816003908051906020019061014c929190610319565b508060049080519060200190610163929190610319565b50505050565b60048054610176906106ca565b80601f01602080910402602001604051908101604052809291908181526020018280546101a2906106ca565b80156101ef5780601f106101c4576101008083540402835291602001916101ef565b820191906000526020600020905b8154815290600101906020018083116101d257829003601f168201915b505050505081565b60038054610204906106ca565b80601f0160208091040260200160405190810160405280929190818152602001828054610230906106ca565b801561027d5780601f106102525761010080835404028352916020019161027d565b820191906000526020600020905b81548152906001019060200180831161026057829003601f168201915b505050505081565b60005481565b60028054610298906106ca565b80601f01602080910402602001604051908101604052809291908181526020018280546102c4906106ca565b80156103115780601f106102e657610100808354040283529160200191610311565b820191906000526020600020905b8154815290600101906020018083116102f457829003601f168201915b505050505081565b828054610325906106ca565b90600052602060002090601f016020900481019282610347576000855561038e565b82601f1061036057805160ff191683800117855561038e565b8280016001018555821561038e579182015b8281111561038d578251825591602001919060010190610372565b5b50905061039b919061039f565b5090565b5b808211156103b85760008160009055506001016103a0565b5090565b6000819050919050565b6103cf816103bc565b82525050565b60006020820190506103ea60008301846103c6565b92915050565b6000604051905090565b600080fd5b600080fd5b600080fd5b600080fd5b6000601f19601f8301169050919050565b7f4e487b7100000000000000000000000000000000000000000000000000000000600052604160045260246000fd5b6104578261040e565b810181811067ffffffffffffffff821117156104765761047561041f565b5b80604052505050565b60006104896103f0565b9050610495828261044e565b919050565b600067ffffffffffffffff8211156104b5576104b461041f565b5b6104be8261040e565b9050602081019050919050565b82818337600083830152505050565b60006104ed6104e88461049a565b61047f565b90508281526020810184848401111561050957610508610409565b5b6105148482856104cb565b509392505050565b600082601f83011261053157610530610404565b5b81356105418482602086016104da565b91505092915050565b600080600060608486031215610563576105626103fa565b5b600084013567ffffffffffffffff811115610581576105806103ff565b5b61058d8682870161051c565b935050602084013567ffffffffffffffff8111156105ae576105ad6103ff565b5b6105ba8682870161051c565b925050604084013567ffffffffffffffff8111156105db576105da6103ff565b5b6105e78682870161051c565b9150509250925092565b600081519050919050565b600082825260208201905092915050565b60005b8381101561062b578082015181840152602081019050610610565b8381111561063a576000848401525b50505050565b600061064b826105f1565b61065581856105fc565b935061066581856020860161060d565b61066e8161040e565b840191505092915050565b600060208201905081810360008301526106938184610640565b905092915050565b7f4e487b7100000000000000000000000000000000000000000000000000000000600052602260045260246000fd5b600060028204905060018216806106e257607f821691505b602082108114156106f6576106f561069b565b5b5091905056fea26469706673582212205449d59f7125a82422de2a2ca8995df24516af2f133b99d2884cf2c5cf63607164736f6c63430008090033a26469706673582212209714ca7edde8c312ff2b856f48ddf1a87851bb30e4192530728c77dea49ae57064736f6c63430008090033",
  "immutableReferences": {},
  "source": "// SPDX-License-Identifier: MIT\r\npragma solidity ^0.8.0;\r\n\r\nimport \"./Employee.sol\";\r\nimport \"./AcademicCredential.sol\";\r\n\r\ncontract Repository{\r\n    mapping (uint => address) public employees;\r\n    uint private number_of_employees = 0;\r\n\r\n    event EmployeeAdded(uint employee_id, address employee_address);\r\n    event AcademicCredentialAdded(uint academic_credential_id, address academic_credential_address);\r\n    event EmployeeUpdated(uint employee_id, string new_name, string new_birth_date);\r\n    event AcademicCredentialUpdated(uint employee_id, uint academic_credential_id, string new_credential_type, string new_field_of_study, string new_institution_name);\r\n\r\n    function addEmployee(string memory name, string memory birth_date) public{\r\n        Employee employee = new Employee(number_of_employees, name, birth_date);\r\n        employees[number_of_employees] = address(employee);\r\n        emit EmployeeAdded(number_of_employees, address(employee));\r\n        number_of_employees++;\r\n\r\n    }\r\n\r\n    function updateEmployee(uint employee_id, string memory new_name, string memory new_birth_date) public{\r\n        require(employee_id < number_of_employees, \"Employee does not exist!\");\r\n        Employee(employees[employee_id]).updateDetails(new_name, new_birth_date);\r\n        emit EmployeeUpdated(employee_id, new_name, new_birth_date);\r\n    }\r\n\r\n    function addAcademicCredential(uint employee_id, string memory credential_type, string memory field_of_study, string memory institution_name) public {\r\n        require(employee_id < number_of_employees, \"Employee does not exist!\");\r\n        Employee employee = Employee(employees[employee_id]);\r\n        uint number_of_academic_credentials = employee.getAcademicCredentialsCount();\r\n        AcademicCredential new_academic_credential = new AcademicCredential(number_of_academic_credentials, employee_id, credential_type, field_of_study, institution_name);\r\n        employee.addAcademicCredential(address(new_academic_credential));\r\n        emit AcademicCredentialAdded(number_of_academic_credentials, address(new_academic_credential));\r\n        \r\n    }\r\n\r\n    function updateAcademicCredential(uint employee_id, uint academic_credential_id, string memory new_credential_type, string memory new_field_of_study, string memory new_institution_name) public{\r\n        require(employee_id < number_of_employees, \"Employee does not exist!\");\r\n        Employee employee = Employee(employees[employee_id]);\r\n        uint number_of_academic_credentials = employee.getAcademicCredentialsCount();\r\n        require(academic_credential_id < number_of_academic_credentials, \"Academic credential with the given id does not exist for that patient!\");\r\n        address[] memory academic_credentials_addresses = employee.getAcademicCredentials();\r\n        AcademicCredential academic_credential = AcademicCredential(academic_credentials_addresses[academic_credential_id]);\r\n        academic_credential.updateAcademicCredential(new_credential_type, new_field_of_study, new_institution_name);\r\n        emit AcademicCredentialUpdated(employee_id, academic_credential_id, new_credential_type, new_field_of_study, new_institution_name);\r\n    }\r\n\r\n    function getEmployee(uint employee_id) public view returns (address) {\r\n        require(employee_id < number_of_employees, \"Employee does not exist!\");\r\n        return employees[employee_id];\r\n    }\r\n\r\n    function getAllAcademicRecordsOfEmployee(uint employee_id) public view returns (address[] memory){\r\n        require(employee_id < number_of_employees, \"Employee does not exist!\");\r\n        Employee empployee = Employee(employees[employee_id]);\r\n        return empployee.getAcademicCredentials();\r\n    }\r\n\r\n    function getCertainAcademicCredentialOfEmployee(uint employee_id, uint academic_credential_id) public view returns (address) {\r\n        require(employee_id < number_of_employees, \"Employee does not exist!\");\r\n        Employee employee = Employee(employees[employee_id]);\r\n        uint number_of_academic_credentials = employee.getAcademicCredentialsCount();\r\n        require(academic_credential_id < number_of_academic_credentials, \"Academic credential with the given id does not exist!\");\r\n        address[] memory academic_credential_addresses = employee.getAcademicCredentials();\r\n        return academic_credential_addresses[academic_credential_id-1];\r\n    }\r\n\r\n\r\n}\r\n",
  "sourcePath": "D:\\Blockchain\\contracts\\Repository.sol",
  "compiler": {
    "name": "solc",
    "version": "0.8.9+commit.e5eed63a.Emscripten.clang"
  },
  "schemaVersion": "3.4.16",
  "updatedAt": "2024-05-17T12:05:25.383Z",
  "networkType": "ethereum",
  "devdoc": {
    "kind": "dev",
    "methods": {},
    "version": 1
  },
  "userdoc": {
    "kind": "user",
    "methods": {},
    "version": 1
  }
}